:100000000C9434000C9449000C9449000C94490061
:100010000C9449000C9449000C9449000C9449003C
:100020000C9449000C9449000C9449000C9449002C
:100030000C9449000C9449000C9449000C9449001C
:100040000C9449000C9449000C9449000C9449000C
:100050000C9449000C9449000C9449000C944900FC
:100060000C9449000C94490011241FBECFEFD8E036
:10007000DEBFCDBF11E0A0E0B1E0E2E5F1E002C0FB
:1000800005900D92A831B107D9F70E944B000C944E
:10009000A7000C940000CF93DF93CDB7DEB768972D
:1000A0000FB6F894DEBF0FBECDBF259ABE016F5EBE
:1000B0007F4FAE01475F5F4F7B018A0130E288E0EE
:1000C000E0E0F1E0D70101900D928A95E1F788E038
:1000D000E8E0F1E0D80101900D928A95E1F788E01F
:1000E000E0E1F1E0DE01119601900D928A95E1F7D1
:1000F000CB01FE0131966A01DC012D91CD01211168
:1001000005C02081222369F015B80CC0D6012C91BE
:10011000211119C020812111F7CFD6012C91211175
:10012000F3CF35B9BFEF23EDA0E3B1502040A0409D
:10013000E1F700C000003196BFEFCB1ADB0AE417ED
:10014000F507D1F6BCCF20812111EBCFE6CFF89493
:02015000FFCFDF
:100152000000000001010101000001010000010195
:08016200000100010001000191
:00000001FF
